{
  "_format": "hh-sol-artifact-1",
  "contractName": "HowDAOToken",
  "sourceName": "contracts/HOWDAOToken.sol",
  "abi": [
    {
      "inputs": [],
      "stateMutability": "nonpayable",
      "type": "constructor"
    },
    {
      "anonymous": false,
      "inputs": [
        {
          "indexed": true,
          "internalType": "address",
          "name": "owner",
          "type": "address"
        },
        {
          "indexed": true,
          "internalType": "address",
          "name": "spender",
          "type": "address"
        },
        {
          "indexed": false,
          "internalType": "uint256",
          "name": "value",
          "type": "uint256"
        }
      ],
      "name": "Approval",
      "type": "event"
    },
    {
      "anonymous": false,
      "inputs": [
        {
          "indexed": true,
          "internalType": "address",
          "name": "delegator",
          "type": "address"
        },
        {
          "indexed": true,
          "internalType": "address",
          "name": "fromDelegate",
          "type": "address"
        },
        {
          "indexed": true,
          "internalType": "address",
          "name": "toDelegate",
          "type": "address"
        }
      ],
      "name": "DelegateChanged",
      "type": "event"
    },
    {
      "anonymous": false,
      "inputs": [
        {
          "indexed": true,
          "internalType": "address",
          "name": "delegate",
          "type": "address"
        },
        {
          "indexed": false,
          "internalType": "uint256",
          "name": "previousBalance",
          "type": "uint256"
        },
        {
          "indexed": false,
          "internalType": "uint256",
          "name": "newBalance",
          "type": "uint256"
        }
      ],
      "name": "DelegateVotesChanged",
      "type": "event"
    },
    {
      "anonymous": false,
      "inputs": [
        {
          "indexed": true,
          "internalType": "address",
          "name": "from",
          "type": "address"
        },
        {
          "indexed": true,
          "internalType": "address",
          "name": "to",
          "type": "address"
        },
        {
          "indexed": false,
          "internalType": "uint256",
          "name": "value",
          "type": "uint256"
        }
      ],
      "name": "Transfer",
      "type": "event"
    },
    {
      "inputs": [],
      "name": "DOMAIN_SEPARATOR",
      "outputs": [
        {
          "internalType": "bytes32",
          "name": "",
          "type": "bytes32"
        }
      ],
      "stateMutability": "view",
      "type": "function"
    },
    {
      "inputs": [
        {
          "internalType": "address",
          "name": "owner",
          "type": "address"
        },
        {
          "internalType": "address",
          "name": "spender",
          "type": "address"
        }
      ],
      "name": "allowance",
      "outputs": [
        {
          "internalType": "uint256",
          "name": "",
          "type": "uint256"
        }
      ],
      "stateMutability": "view",
      "type": "function"
    },
    {
      "inputs": [
        {
          "internalType": "address",
          "name": "spender",
          "type": "address"
        },
        {
          "internalType": "uint256",
          "name": "amount",
          "type": "uint256"
        }
      ],
      "name": "approve",
      "outputs": [
        {
          "internalType": "bool",
          "name": "",
          "type": "bool"
        }
      ],
      "stateMutability": "nonpayable",
      "type": "function"
    },
    {
      "inputs": [
        {
          "internalType": "address",
          "name": "account",
          "type": "address"
        }
      ],
      "name": "balanceOf",
      "outputs": [
        {
          "internalType": "uint256",
          "name": "",
          "type": "uint256"
        }
      ],
      "stateMutability": "view",
      "type": "function"
    },
    {
      "inputs": [
        {
          "internalType": "address",
          "name": "account",
          "type": "address"
        },
        {
          "internalType": "uint32",
          "name": "pos",
          "type": "uint32"
        }
      ],
      "name": "checkpoints",
      "outputs": [
        {
          "components": [
            {
              "internalType": "uint32",
              "name": "fromBlock",
              "type": "uint32"
            },
            {
              "internalType": "uint224",
              "name": "votes",
              "type": "uint224"
            }
          ],
          "internalType": "struct ERC20Votes.Checkpoint",
          "name": "",
          "type": "tuple"
        }
      ],
      "stateMutability": "view",
      "type": "function"
    },
    {
      "inputs": [],
      "name": "decimals",
      "outputs": [
        {
          "internalType": "uint8",
          "name": "",
          "type": "uint8"
        }
      ],
      "stateMutability": "view",
      "type": "function"
    },
    {
      "inputs": [
        {
          "internalType": "address",
          "name": "spender",
          "type": "address"
        },
        {
          "internalType": "uint256",
          "name": "subtractedValue",
          "type": "uint256"
        }
      ],
      "name": "decreaseAllowance",
      "outputs": [
        {
          "internalType": "bool",
          "name": "",
          "type": "bool"
        }
      ],
      "stateMutability": "nonpayable",
      "type": "function"
    },
    {
      "inputs": [
        {
          "internalType": "address",
          "name": "delegatee",
          "type": "address"
        }
      ],
      "name": "delegate",
      "outputs": [],
      "stateMutability": "nonpayable",
      "type": "function"
    },
    {
      "inputs": [
        {
          "internalType": "address",
          "name": "delegatee",
          "type": "address"
        },
        {
          "internalType": "uint256",
          "name": "nonce",
          "type": "uint256"
        },
        {
          "internalType": "uint256",
          "name": "expiry",
          "type": "uint256"
        },
        {
          "internalType": "uint8",
          "name": "v",
          "type": "uint8"
        },
        {
          "internalType": "bytes32",
          "name": "r",
          "type": "bytes32"
        },
        {
          "internalType": "bytes32",
          "name": "s",
          "type": "bytes32"
        }
      ],
      "name": "delegateBySig",
      "outputs": [],
      "stateMutability": "nonpayable",
      "type": "function"
    },
    {
      "inputs": [
        {
          "internalType": "address",
          "name": "account",
          "type": "address"
        }
      ],
      "name": "delegates",
      "outputs": [
        {
          "internalType": "address",
          "name": "",
          "type": "address"
        }
      ],
      "stateMutability": "view",
      "type": "function"
    },
    {
      "inputs": [
        {
          "internalType": "uint256",
          "name": "blockNumber",
          "type": "uint256"
        }
      ],
      "name": "getPastTotalSupply",
      "outputs": [
        {
          "internalType": "uint256",
          "name": "",
          "type": "uint256"
        }
      ],
      "stateMutability": "view",
      "type": "function"
    },
    {
      "inputs": [
        {
          "internalType": "address",
          "name": "account",
          "type": "address"
        },
        {
          "internalType": "uint256",
          "name": "blockNumber",
          "type": "uint256"
        }
      ],
      "name": "getPastVotes",
      "outputs": [
        {
          "internalType": "uint256",
          "name": "",
          "type": "uint256"
        }
      ],
      "stateMutability": "view",
      "type": "function"
    },
    {
      "inputs": [
        {
          "internalType": "address",
          "name": "account",
          "type": "address"
        }
      ],
      "name": "getVotes",
      "outputs": [
        {
          "internalType": "uint256",
          "name": "",
          "type": "uint256"
        }
      ],
      "stateMutability": "view",
      "type": "function"
    },
    {
      "inputs": [
        {
          "internalType": "address",
          "name": "spender",
          "type": "address"
        },
        {
          "internalType": "uint256",
          "name": "addedValue",
          "type": "uint256"
        }
      ],
      "name": "increaseAllowance",
      "outputs": [
        {
          "internalType": "bool",
          "name": "",
          "type": "bool"
        }
      ],
      "stateMutability": "nonpayable",
      "type": "function"
    },
    {
      "inputs": [],
      "name": "name",
      "outputs": [
        {
          "internalType": "string",
          "name": "",
          "type": "string"
        }
      ],
      "stateMutability": "view",
      "type": "function"
    },
    {
      "inputs": [
        {
          "internalType": "address",
          "name": "owner",
          "type": "address"
        }
      ],
      "name": "nonces",
      "outputs": [
        {
          "internalType": "uint256",
          "name": "",
          "type": "uint256"
        }
      ],
      "stateMutability": "view",
      "type": "function"
    },
    {
      "inputs": [
        {
          "internalType": "address",
          "name": "account",
          "type": "address"
        }
      ],
      "name": "numCheckpoints",
      "outputs": [
        {
          "internalType": "uint32",
          "name": "",
          "type": "uint32"
        }
      ],
      "stateMutability": "view",
      "type": "function"
    },
    {
      "inputs": [
        {
          "internalType": "address",
          "name": "owner",
          "type": "address"
        },
        {
          "internalType": "address",
          "name": "spender",
          "type": "address"
        },
        {
          "internalType": "uint256",
          "name": "value",
          "type": "uint256"
        },
        {
          "internalType": "uint256",
          "name": "deadline",
          "type": "uint256"
        },
        {
          "internalType": "uint8",
          "name": "v",
          "type": "uint8"
        },
        {
          "internalType": "bytes32",
          "name": "r",
          "type": "bytes32"
        },
        {
          "internalType": "bytes32",
          "name": "s",
          "type": "bytes32"
        }
      ],
      "name": "permit",
      "outputs": [],
      "stateMutability": "nonpayable",
      "type": "function"
    },
    {
      "inputs": [],
      "name": "s_maxSupply",
      "outputs": [
        {
          "internalType": "uint256",
          "name": "",
          "type": "uint256"
        }
      ],
      "stateMutability": "view",
      "type": "function"
    },
    {
      "inputs": [],
      "name": "symbol",
      "outputs": [
        {
          "internalType": "string",
          "name": "",
          "type": "string"
        }
      ],
      "stateMutability": "view",
      "type": "function"
    },
    {
      "inputs": [],
      "name": "totalSupply",
      "outputs": [
        {
          "internalType": "uint256",
          "name": "",
          "type": "uint256"
        }
      ],
      "stateMutability": "view",
      "type": "function"
    },
    {
      "inputs": [
        {
          "internalType": "address",
          "name": "to",
          "type": "address"
        },
        {
          "internalType": "uint256",
          "name": "amount",
          "type": "uint256"
        }
      ],
      "name": "transfer",
      "outputs": [
        {
          "internalType": "bool",
          "name": "",
          "type": "bool"
        }
      ],
      "stateMutability": "nonpayable",
      "type": "function"
    },
    {
      "inputs": [
        {
          "internalType": "address",
          "name": "from",
          "type": "address"
        },
        {
          "internalType": "address",
          "name": "to",
          "type": "address"
        },
        {
          "internalType": "uint256",
          "name": "amount",
          "type": "uint256"
        }
      ],
      "name": "transferFrom",
      "outputs": [
        {
          "internalType": "bool",
          "name": "",
          "type": "bool"
        }
      ],
      "stateMutability": "nonpayable",
      "type": "function"
    }
  ],
  "bytecode": "0x61014060405269d3c21bcecceda1000000600a553480156200002057600080fd5b506040518060400160405280600b81526020016a2437bba220a7aa37b5b2b760a91b81525080604051806040016040528060018152602001603160f81b81525060405180604001604052806006815260200165486f7744414f60d01b81525060405180604001604052806006815260200165484f5744414f60d01b8152508160039080519060200190620000b69291906200079d565b508051620000cc9060049060208401906200079d565b5050825160208085019190912083518483012060e08290526101008190524660a0818152604080517f8b73c3c69bb8fe3d512ecc4cf759cc79239f7b179b0ffacaa9a75d522b39400f81880181905281830187905260608201869052608082019490945230818401528151808203909301835260c0019052805194019390932091935091906080523060601b60c052610120525050600a5462000175935033925090506200017b565b620008c1565b6200019282826200019660201b62000a951760201c565b5050565b620001ad82826200024d60201b62000b321760201c565b6001600160e01b03620001c16200033c8216565b11156200022e5760405162461bcd60e51b815260206004820152603060248201527f4552433230566f7465733a20746f74616c20737570706c79207269736b73206f60448201526f766572666c6f77696e6720766f74657360801b60648201526084015b60405180910390fd5b62000247600962000c1d6200034260201b178362000357565b50505050565b6001600160a01b038216620002a55760405162461bcd60e51b815260206004820152601f60248201527f45524332303a206d696e7420746f20746865207a65726f206164647265737300604482015260640162000225565b8060026000828254620002b9919062000839565b90915550506001600160a01b03821660009081526020819052604081208054839290620002e890849062000839565b90915550506040518181526001600160a01b038316906000907fddf252ad1be2c89b69c2b068fc378daa952ba7f163c4a11628f55a4df523b3ef9060200160405180910390a3620001926000838362000532565b60025490565b600062000350828462000839565b9392505050565b825460009081908015620003b557856200037360018362000854565b815481106200039257634e487b7160e01b600052603260045260246000fd5b60009182526020909120015464010000000090046001600160e01b0316620003b8565b60005b6001600160e01b03169250620003cf83858760201c565b91506000811180156200041f57504386620003ec60018462000854565b815481106200040b57634e487b7160e01b600052603260045260246000fd5b60009182526020909120015463ffffffff16145b156200049f576200043b826200054a60201b62000c291760201c565b866200044960018462000854565b815481106200046857634e487b7160e01b600052603260045260246000fd5b9060005260206000200160000160046101000a8154816001600160e01b0302191690836001600160e01b0316021790555062000524565b856040518060400160405280620004c143620005b960201b62000c961760201c565b63ffffffff168152602001620004e2856200054a60201b62000c291760201c565b6001600160e01b0390811690915282546001810184556000938452602093849020835194909301519091166401000000000263ffffffff909316929092179101555b50935093915050565b505050565b6200052d8383836200062060201b62000cfb1760201c565b60006001600160e01b03821115620005b55760405162461bcd60e51b815260206004820152602760248201527f53616665436173743a2076616c756520646f65736e27742066697420696e20326044820152663234206269747360c81b606482015260840162000225565b5090565b600063ffffffff821115620005b55760405162461bcd60e51b815260206004820152602660248201527f53616665436173743a2076616c756520646f65736e27742066697420696e203360448201526532206269747360d01b606482015260840162000225565b620006388383836200052d60201b62000d2d1760201c565b6001600160a01b038381166000908152600760205260408082205485841683529120546200052d92918216911683818314801590620006775750600081115b156200052d576001600160a01b0383161562000704576001600160a01b038316600090815260086020908152604082208291620006c191906200078f901b62000d32178562000357565b91509150846001600160a01b0316600080516020620026048339815191528383604051620006f9929190918252602082015260400190565b60405180910390a250505b6001600160a01b038216156200052d576001600160a01b03821660009081526008602090815260408220829162000748919062000342901b62000c1d178562000357565b91509150836001600160a01b031660008051602062002604833981519152838360405162000780929190918252602082015260400190565b60405180910390a25050505050565b600062000350828462000854565b828054620007ab906200086e565b90600052602060002090601f016020900481019282620007cf57600085556200081a565b82601f10620007ea57805160ff19168380011785556200081a565b828001600101855582156200081a579182015b828111156200081a578251825591602001919060010190620007fd565b50620005b59291505b80821115620005b5576000815560010162000823565b600082198211156200084f576200084f620008ab565b500190565b600082821015620008695762000869620008ab565b500390565b600181811c908216806200088357607f821691505b60208210811415620008a557634e487b7160e01b600052602260045260246000fd5b50919050565b634e487b7160e01b600052601160045260246000fd5b60805160a05160c05160601c60e0516101005161012051611cf062000914600039600061114c0152600061119b01526000611176015260006110cf015260006110f9015260006111230152611cf06000f3fe608060405234801561001057600080fd5b506004361061017d5760003560e01c80636fcfff45116100e3578063a457c2d71161008c578063d505accf11610066578063d505accf14610352578063dd62ed3e14610365578063f1127ed81461039e57600080fd5b8063a457c2d714610319578063a9059cbb1461032c578063c3cda5201461033f57600080fd5b80638e539e8c116100bd5780638e539e8c146102eb57806395d89b41146102fe5780639ab24eb01461030657600080fd5b80636fcfff451461028757806370a08231146102af5780637ecebe00146102d857600080fd5b80633644e51511610145578063587cde1e1161011f578063587cde1e146102255780635c19a95c146102695780635d6418471461027e57600080fd5b80633644e515146101f757806339509351146101ff5780633a46b1a81461021257600080fd5b806306fdde0314610182578063095ea7b3146101a057806318160ddd146101c357806323b872dd146101d5578063313ce567146101e8575b600080fd5b61018a6103db565b6040516101979190611bcd565b60405180910390f35b6101b36101ae366004611af7565b61046d565b6040519015158152602001610197565b6002545b604051908152602001610197565b6101b36101e3366004611a53565b610485565b60405160128152602001610197565b6101c76104a9565b6101b361020d366004611af7565b6104b8565b6101c7610220366004611af7565b6104f7565b610251610233366004611a07565b6001600160a01b039081166000908152600760205260409020541690565b6040516001600160a01b039091168152602001610197565b61027c610277366004611a07565b610576565b005b6101c7600a5481565b61029a610295366004611a07565b610583565b60405163ffffffff9091168152602001610197565b6101c76102bd366004611a07565b6001600160a01b031660009081526020819052604090205490565b6101c76102e6366004611a07565b6105ab565b6101c76102f9366004611bb5565b6105c9565b61018a610625565b6101c7610314366004611a07565b610634565b6101b3610327366004611af7565b6106c9565b6101b361033a366004611af7565b61075b565b61027c61034d366004611b20565b610769565b61027c610360366004611a8e565b61089f565b6101c7610373366004611a21565b6001600160a01b03918216600090815260016020908152604080832093909416825291909152205490565b6103b16103ac366004611b77565b610a03565b60408051825163ffffffff1681526020928301516001600160e01b03169281019290925201610197565b6060600380546103ea90611c6f565b80601f016020809104026020016040519081016040528092919081815260200182805461041690611c6f565b80156104635780601f1061043857610100808354040283529160200191610463565b820191906000526020600020905b81548152906001019060200180831161044657829003601f168201915b5050505050905090565b60003361047b818585610d3e565b5060019392505050565b600033610493858285610e62565b61049e858585610eee565b506001949350505050565b60006104b36110c2565b905090565b3360008181526001602090815260408083206001600160a01b038716845290915281205490919061047b90829086906104f2908790611c20565b610d3e565b600043821061054d5760405162461bcd60e51b815260206004820152601f60248201527f4552433230566f7465733a20626c6f636b206e6f7420796574206d696e65640060448201526064015b60405180910390fd5b6001600160a01b038316600090815260086020526040902061056f90836111e9565b9392505050565b61058033826112c2565b50565b6001600160a01b0381166000908152600860205260408120546105a590610c96565b92915050565b6001600160a01b0381166000908152600560205260408120546105a5565b600043821061061a5760405162461bcd60e51b815260206004820152601f60248201527f4552433230566f7465733a20626c6f636b206e6f7420796574206d696e6564006044820152606401610544565b6105a56009836111e9565b6060600480546103ea90611c6f565b6001600160a01b03811660009081526008602052604081205480156106b6576001600160a01b0383166000908152600860205260409020610676600183611c58565b8154811061069457634e487b7160e01b600052603260045260246000fd5b60009182526020909120015464010000000090046001600160e01b03166106b9565b60005b6001600160e01b03169392505050565b3360008181526001602090815260408083206001600160a01b03871684529091528120549091908381101561074e5760405162461bcd60e51b815260206004820152602560248201527f45524332303a2064656372656173656420616c6c6f77616e63652062656c6f77604482015264207a65726f60d81b6064820152608401610544565b61049e8286868403610d3e565b60003361047b818585610eee565b834211156107b95760405162461bcd60e51b815260206004820152601d60248201527f4552433230566f7465733a207369676e617475726520657870697265640000006044820152606401610544565b604080517fe48329057bfd03d55e49b547132e39cffd9c1820ad7b9d4c5307691425d15adf60208201526001600160a01b0388169181019190915260608101869052608081018590526000906108339061082b9060a00160405160208183030381529060405280519060200120611348565b858585611396565b905061083e816113be565b861461088c5760405162461bcd60e51b815260206004820152601960248201527f4552433230566f7465733a20696e76616c6964206e6f6e6365000000000000006044820152606401610544565b61089681886112c2565b50505050505050565b834211156108ef5760405162461bcd60e51b815260206004820152601d60248201527f45524332305065726d69743a206578706972656420646561646c696e650000006044820152606401610544565b60007f6e71edae12b1b97f4d1f60370fef10105fa2faae0126114a169c64845d6126c988888861091e8c6113be565b6040805160208101969096526001600160a01b0394851690860152929091166060840152608083015260a082015260c0810186905260e001604051602081830303815290604052805190602001209050600061097982611348565b9050600061098982878787611396565b9050896001600160a01b0316816001600160a01b0316146109ec5760405162461bcd60e51b815260206004820152601e60248201527f45524332305065726d69743a20696e76616c6964207369676e617475726500006044820152606401610544565b6109f78a8a8a610d3e565b50505050505050505050565b60408051808201909152600080825260208201526001600160a01b0383166000908152600860205260409020805463ffffffff8416908110610a5557634e487b7160e01b600052603260045260246000fd5b60009182526020918290206040805180820190915291015463ffffffff8116825264010000000090046001600160e01b0316918101919091529392505050565b610a9f8282610b32565b6002546001600160e01b031015610b1e5760405162461bcd60e51b815260206004820152603060248201527f4552433230566f7465733a20746f74616c20737570706c79207269736b73206f60448201527f766572666c6f77696e6720766f746573000000000000000000000000000000006064820152608401610544565b610b2c6009610c1d836113e6565b50505050565b6001600160a01b038216610b885760405162461bcd60e51b815260206004820152601f60248201527f45524332303a206d696e7420746f20746865207a65726f2061646472657373006044820152606401610544565b8060026000828254610b9a9190611c20565b90915550506001600160a01b03821660009081526020819052604081208054839290610bc7908490611c20565b90915550506040518181526001600160a01b038316906000907fddf252ad1be2c89b69c2b068fc378daa952ba7f163c4a11628f55a4df523b3ef9060200160405180910390a3610c1960008383611589565b5050565b600061056f8284611c20565b60006001600160e01b03821115610c925760405162461bcd60e51b815260206004820152602760248201527f53616665436173743a2076616c756520646f65736e27742066697420696e20326044820152663234206269747360c81b6064820152608401610544565b5090565b600063ffffffff821115610c925760405162461bcd60e51b815260206004820152602660248201527f53616665436173743a2076616c756520646f65736e27742066697420696e203360448201526532206269747360d01b6064820152608401610544565b6001600160a01b03838116600090815260076020526040808220548584168352912054610d2d92918216911683611594565b505050565b600061056f8284611c58565b6001600160a01b038316610da05760405162461bcd60e51b8152602060048201526024808201527f45524332303a20617070726f76652066726f6d20746865207a65726f206164646044820152637265737360e01b6064820152608401610544565b6001600160a01b038216610e015760405162461bcd60e51b815260206004820152602260248201527f45524332303a20617070726f766520746f20746865207a65726f206164647265604482015261737360f01b6064820152608401610544565b6001600160a01b0383811660008181526001602090815260408083209487168084529482529182902085905590518481527f8c5be1e5ebec7d5bd14f71427d1e84f3dd0314c0f7b2291e5b200ac8c7c3b925910160405180910390a3505050565b6001600160a01b038381166000908152600160209081526040808320938616835292905220546000198114610b2c5781811015610ee15760405162461bcd60e51b815260206004820152601d60248201527f45524332303a20696e73756666696369656e7420616c6c6f77616e63650000006044820152606401610544565b610b2c8484848403610d3e565b6001600160a01b038316610f525760405162461bcd60e51b815260206004820152602560248201527f45524332303a207472616e736665722066726f6d20746865207a65726f206164604482015264647265737360d81b6064820152608401610544565b6001600160a01b038216610fb45760405162461bcd60e51b815260206004820152602360248201527f45524332303a207472616e7366657220746f20746865207a65726f206164647260448201526265737360e81b6064820152608401610544565b6001600160a01b0383166000908152602081905260409020548181101561102c5760405162461bcd60e51b815260206004820152602660248201527f45524332303a207472616e7366657220616d6f756e7420657863656564732062604482015265616c616e636560d01b6064820152608401610544565b6001600160a01b03808516600090815260208190526040808220858503905591851681529081208054849290611063908490611c20565b92505081905550826001600160a01b0316846001600160a01b03167fddf252ad1be2c89b69c2b068fc378daa952ba7f163c4a11628f55a4df523b3ef846040516110af91815260200190565b60405180910390a3610b2c848484611589565b6000306001600160a01b037f00000000000000000000000000000000000000000000000000000000000000001614801561111b57507f000000000000000000000000000000000000000000000000000000000000000046145b1561114557507f000000000000000000000000000000000000000000000000000000000000000090565b50604080517f00000000000000000000000000000000000000000000000000000000000000006020808301919091527f0000000000000000000000000000000000000000000000000000000000000000828401527f000000000000000000000000000000000000000000000000000000000000000060608301524660808301523060a0808401919091528351808403909101815260c0909201909252805191012090565b8154600090815b8181101561125b57600061120482846116d1565b90508486828154811061122757634e487b7160e01b600052603260045260246000fd5b60009182526020909120015463ffffffff16111561124757809250611255565b611252816001611c20565b91505b506111f0565b81156112ad578461126d600184611c58565b8154811061128b57634e487b7160e01b600052603260045260246000fd5b60009182526020909120015464010000000090046001600160e01b03166112b0565b60005b6001600160e01b031695945050505050565b6001600160a01b0382811660008181526007602081815260408084208054858452828620549490935287871673ffffffffffffffffffffffffffffffffffffffff198416811790915590519190951694919391928592917f3134e8a2e6d97e929a7e54011ea5485d7d196dd5f0ba4d4ef95803e8e3fc257f9190a4610b2c828483611594565b60006105a56113556110c2565b8360405161190160f01b6020820152602281018390526042810182905260009060620160405160208183030381529060405280519060200120905092915050565b60008060006113a7878787876116ec565b915091506113b4816117d9565b5095945050505050565b6001600160a01b03811660009081526005602052604090208054600181018255905b50919050565b82546000908190801561143f57856113ff600183611c58565b8154811061141d57634e487b7160e01b600052603260045260246000fd5b60009182526020909120015464010000000090046001600160e01b0316611442565b60005b6001600160e01b0316925061145b83858763ffffffff16565b91506000811180156114a757504386611475600184611c58565b8154811061149357634e487b7160e01b600052603260045260246000fd5b60009182526020909120015463ffffffff16145b15611515576114b582610c29565b866114c1600184611c58565b815481106114df57634e487b7160e01b600052603260045260246000fd5b9060005260206000200160000160046101000a8154816001600160e01b0302191690836001600160e01b03160217905550611580565b85604051806040016040528061152a43610c96565b63ffffffff16815260200161153e85610c29565b6001600160e01b0390811690915282546001810184556000938452602093849020835194909301519091166401000000000263ffffffff909316929092179101555b50935093915050565b610d2d838383610cfb565b816001600160a01b0316836001600160a01b0316141580156115b65750600081115b15610d2d576001600160a01b03831615611644576001600160a01b038316600090815260086020526040812081906115f190610d32856113e6565b91509150846001600160a01b03167fdec2bacdd2f05b59de34da9b523dff8be42e5e38e818c82fdb0bae774387a7248383604051611639929190918252602082015260400190565b60405180910390a250505b6001600160a01b03821615610d2d576001600160a01b0382166000908152600860205260408120819061167a90610c1d856113e6565b91509150836001600160a01b03167fdec2bacdd2f05b59de34da9b523dff8be42e5e38e818c82fdb0bae774387a72483836040516116c2929190918252602082015260400190565b60405180910390a25050505050565b60006116e06002848418611c38565b61056f90848416611c20565b6000807f7fffffffffffffffffffffffffffffff5d576e7357a4501ddfe92f46681b20a083111561172357506000905060036117d0565b8460ff16601b1415801561173b57508460ff16601c14155b1561174c57506000905060046117d0565b6040805160008082526020820180845289905260ff881692820192909252606081018690526080810185905260019060a0016020604051602081039080840390855afa1580156117a0573d6000803e3d6000fd5b5050604051601f1901519150506001600160a01b0381166117c9576000600192509250506117d0565b9150600090505b94509492505050565b60008160048111156117fb57634e487b7160e01b600052602160045260246000fd5b14156118045750565b600181600481111561182657634e487b7160e01b600052602160045260246000fd5b14156118745760405162461bcd60e51b815260206004820152601860248201527f45434453413a20696e76616c6964207369676e617475726500000000000000006044820152606401610544565b600281600481111561189657634e487b7160e01b600052602160045260246000fd5b14156118e45760405162461bcd60e51b815260206004820152601f60248201527f45434453413a20696e76616c6964207369676e6174757265206c656e677468006044820152606401610544565b600381600481111561190657634e487b7160e01b600052602160045260246000fd5b141561195f5760405162461bcd60e51b815260206004820152602260248201527f45434453413a20696e76616c6964207369676e6174757265202773272076616c604482015261756560f01b6064820152608401610544565b600481600481111561198157634e487b7160e01b600052602160045260246000fd5b14156105805760405162461bcd60e51b815260206004820152602260248201527f45434453413a20696e76616c6964207369676e6174757265202776272076616c604482015261756560f01b6064820152608401610544565b80356001600160a01b03811681146119f157600080fd5b919050565b803560ff811681146119f157600080fd5b600060208284031215611a18578081fd5b61056f826119da565b60008060408385031215611a33578081fd5b611a3c836119da565b9150611a4a602084016119da565b90509250929050565b600080600060608486031215611a67578081fd5b611a70846119da565b9250611a7e602085016119da565b9150604084013590509250925092565b600080600080600080600060e0888a031215611aa8578283fd5b611ab1886119da565b9650611abf602089016119da565b95506040880135945060608801359350611adb608089016119f6565b925060a0880135915060c0880135905092959891949750929550565b60008060408385031215611b09578182fd5b611b12836119da565b946020939093013593505050565b60008060008060008060c08789031215611b38578182fd5b611b41876119da565b95506020870135945060408701359350611b5d606088016119f6565b92506080870135915060a087013590509295509295509295565b60008060408385031215611b89578182fd5b611b92836119da565b9150602083013563ffffffff81168114611baa578182fd5b809150509250929050565b600060208284031215611bc6578081fd5b5035919050565b6000602080835283518082850152825b81811015611bf957858101830151858201604001528201611bdd565b81811115611c0a5783604083870101525b50601f01601f1916929092016040019392505050565b60008219821115611c3357611c33611ca4565b500190565b600082611c5357634e487b7160e01b81526012600452602481fd5b500490565b600082821015611c6a57611c6a611ca4565b500390565b600181811c90821680611c8357607f821691505b602082108114156113e057634e487b7160e01b600052602260045260246000fd5b634e487b7160e01b600052601160045260246000fdfea264697066735822122011fdfaffd0b23d1c1aa34fc128759fb28a8c5662639a030654fac02790e10cab64736f6c63430008040033dec2bacdd2f05b59de34da9b523dff8be42e5e38e818c82fdb0bae774387a724",
  "linkReferences": {},
  "deployedLinkReferences": {}
}